:100000000C9446000C945D000C945D000C945D0013
:100010000C945D000C945D000C945D000C945D00EC
:100020000C945D000C945D000C945D000C945D00DC
:100030000C945D000C945D000C945D000C945D00CC
:100040000C945D000C945D000C945D000C945D00BC
:100050000C945D000C945D000C945D000C945D00AC
:100060000C945D000C945D000C945D000C945D009C
:100070000C945D000C945D000C945D000C945D008C
:100080000C945D000C945D000C945D0011241FBE67
:10009000CFEFD0E4DEBFCDBF11E0A0E0B1E0E6EEEF
:1000A000F1E000E00BBF02C007900D92AE30B10747
:1000B000D9F70E9488000C94F1000C940000CF93B3
:1000C000DF9300D01F92CDB7DEB789837B836A832D
:1000D00089818A3031F48A819B81BC018DE00E9444
:1000E0005F0080EC90E0FC018081882F90E08072BE
:1000F00099270097B1F386EC90E02981FC012083D9
:1001000080E090E00F900F900F90DF91CF910895D5
:10011000CF93DF9300D0CDB7DEB781E290E0FC0152
:10012000108282E290E02FEFFC01208384E290E0D5
:100130002FEFFC01208385E290E0FC011082898191
:100140009A818130910561F08130910520F08230F3
:100150009105D1F02DC081E090E09A8389832BC076
:1001600080E290E0FC018081882F90E081709927E7
:10017000009729F482E090E09A8389831CC081E093
:1001800090E09A83898317C080E290E0FC0180812F
:10019000882F90E081709927009729F481E090E002
:1001A0009A83898308C082E090E09A83898303C0A0
:1001B0001A821982000089819A818130910521F08B
:1001C0008230910539F00CC085E290E021E0FC011D
:1001D000208306C085E290E022E0FC01208300003D
:0601E000AECFF894FFCF42
:0E01E60000000002000000005F0000000000AA
:00000001FF
