:100000000C9454000C9473000C9473000C947300C3
:100010000C9473000C9473000C9473000C94730094
:100020000C9473000C9473000C9473000C94730084
:100030000C9473000C9473000C9473000C94730074
:100040000C9473000C9473000C9473000C94730064
:100050000C9473000C9473000C9473000C94730054
:100060000C9473000C9473000C9473000C94730044
:100070000C9473000C9473000C9473000C94730034
:100080000C9473000C9473000C947300D900070156
:100090000E0115013C01E00070019D0196019D01DA
:1000A0009D019D019D01900111241FBECFEFD0E461
:1000B000DEBFCDBF11E0A0E0B1E0E8E5F3E000E095
:1000C0000BBF02C007900D92AE30B107D9F711E017
:1000D000AEE0B1E001C01D92A031B107E1F70E948E
:1000E0009E000C94AA010C940000CF93DF9300D0E3
:1000F0001F92CDB7DEB789837B836A8389818A307B
:1001000031F48A819B81BC018DE00E94750080ECF6
:1001100090E0FC018081882F90E080729927009701
:10012000B1F386EC90E02981FC01208380E090E02F
:100130000F900F900F90DF91CF910895CF93DF93A1
:10014000CDB7DEB781E290E0FC01108282E290E060
:100150002FEFFC01208384E290E02FEFFC0120834D
:1001600085E290E0FC01108210920F0110920E01C6
:1001700085E290E0FC0110820E94BF00FDCFCF938A
:10018000DF93CDB7DEB780910E0190910F01CC01C6
:10019000A0E0B0E040E050E026E030E0841B950BAA
:1001A0002817390708F4A2C08A5B9F4FFC010C9402
:1001B000A10185E090E090930F0180930E019BC018
:1001C00080E290E0FC01808188233CF481E090E0B3
:1001D00090930F0180930E0119C080E290E0FC0122
:1001E0008081882F90E0877099278430910539F4B9
:1001F00082E090E090930F0180930E0107C085E0AC
:1002000090E090930F0180930E0175C074C085E05B
:1002100090E090930F0180930E016DC083E090E019
:1002200090930F0180930E0166C080E290E0FC0184
:100230008081882F90E0877099278430910539F468
:1002400083E090E090930F0180930E0114C080E250
:1002500090E0FC018081882339F484E090E0909361
:100260000F0180930E0107C085E090E090930F018D
:1002700080930E0140C03FC080E290E0FC0180818D
:10028000882F90E08770992782309105A1F485E24C
:1002900090E0FC018081813039F481E090E090931E
:1002A0000F0180930E011BC086E090E090930F0138
:1002B00080930E0120C080E290E0FC0180818823C1
:1002C00039F484E090E090930F0180930E0107C011
:1002D00085E090E090930F0180930E010CC00BC05D
:1002E00085E090E090930F0180930E0110920F0132
:1002F00010920E01000080910E0190910F01CC012F
:10030000A0E0B0E040E050E026E030E0841B950B38
:100310002817390780F0835B9F4FFC010C94A101E3
:1003200085E290E021E0FC01208308C085E290E0B6
:10033000FC01108203C0000001C00000DF91CF91DA
:100340000895EE0FFF1F0024001C0BBE0790F691CE
:08035000E02D0994F894FFCFA1
:0E035800000000020000000075000000000020
:00000001FF
