:100000000C9446000C9465000C9465000C946500FB
:100010000C9465000C9465000C9465000C946500CC
:100020000C9465000C9465000C9465000C946500BC
:100030000C9465000C9465000C9465000C946500AC
:100040000C9465000C9465000C9465000C9465009C
:100050000C9465000C9465000C9465000C9465008C
:100060000C9465000C9465000C9465000C9465007C
:100070000C9465000C9465000C9465000C9465006C
:100080000C9465000C9465000C94650011241FBE4F
:10009000CFEFD0E4DEBFCDBF11E0A0E0B1E0ECEDEA
:1000A000F2E000E00BBF02C007900D92AE30B10746
:1000B000D9F711E0AEE0B1E001C01D92A031B10767
:1000C000E1F70E9490000C946C010C940000CF9317
:1000D000DF9300D01F92CDB7DEB789837B836A831D
:1000E00089818A3031F48A819B81BC018DE00E9434
:1000F000670080EC90E0FC018081882F90E08072A6
:1001000099270097B1F386EC90E02981FC012083C8
:1001100080E090E00F900F900F90DF91CF910895C5
:10012000CF93DF93CDB7DEB781E290E0FC01108280
:1001300082E290E02FEFFC01208384E290E02FEF39
:10014000FC01208385E290E0FC01108210920F01F7
:1001500010920E0185E290E0FC0110820E94B10035
:10016000FDCFCF93DF93CDB7DEB780910E01909195
:100170000F018230910509F45FC08330910530F49E
:10018000009759F08130910579F06EC08330910568
:1001900019F184309105C1F167C081E090E090933E
:1001A0000F0180930E0165C080E290E0FC01808128
:1001B000882F90E081709927009739F084E090E0D3
:1001C00090930F0180930E0154C081E090E09093D2
:1001D0000F0180930E014DC080E290E0FC01808110
:1001E000882F90E081709927009739F083E090E0A4
:1001F00090930F0180930E013CC081E090E09093BA
:100200000F0180930E0135C080E290E0FC018081F7
:10021000882F90E081709927009739F084E090E072
:1002200090930F0180930E0124C082E090E09093A0
:100230000F0180930E011DC080E290E0FC018081DF
:10024000882F90E081709927009739F083E090E043
:1002500090930F0180930E010CC082E090E0909388
:100260000F0180930E0105C010920F0110920E0134
:10027000000080910E0190910F0182309105B1F044
:100280008330910530F4009719F18130910541F0E8
:1002900020C08330910581F08430910599F019C018
:1002A00085E290E021E0FC01208313C085E290E02C
:1002B00022E0FC0120830DC085E290E021E0FC01FA
:1002C000208307C085E290E022E0FC01208301C08A
:0C02D0000000DF91CF910895F894FFCF5B
:0E02DC000000000200000000670000000000AB
:00000001FF
