:100000000C9454000C9473000C9473000C947300C3
:100010000C9473000C9473000C9473000C94730094
:100020000C9473000C9473000C9473000C94730084
:100030000C9473000C9473000C9473000C94730074
:100040000C9473000C9473000C9473000C94730064
:100050000C9473000C9473000C9473000C94730054
:100060000C9473000C9473000C9473000C94730044
:100070000C9473000C9473000C9473000C94730034
:100080000C9473000C9473000C947300D90012014B
:10009000190120015901E000AA01D701D001D701BF
:1000A000D701D701D701CA0111241FBECFEFD0E479
:1000B000DEBFCDBF11E0A0E0B1E0ECECF3E000E08A
:1000C0000BBF02C007900D92A231B107D9F711E022
:1000D000A2E1B1E001C01D92A531B107E1F70E9494
:1000E0009E000C94E4010C940000CF93DF9300D0A9
:1000F0001F92CDB7DEB789837B836A8389818A307B
:1001000031F48A819B81BC018DE00E94750080ECF6
:1001100090E0FC018081882F90E080729927009701
:10012000B1F386EC90E02981FC01208380E090E02F
:100130000F900F900F90DF91CF910895CF93DF93A1
:10014000CDB7DEB781E290E0FC01108282E290E060
:100150002FEFFC01208384E290E02FEFFC0120834D
:1001600085E290E0FC0110821092140110921301BC
:1001700085E290E0FC0110820E94BF00FDCFCF938A
:10018000DF93CDB7DEB78091130190911401CC01BC
:10019000A0E0B0E040E050E026E030E0841B950BAA
:1001A0002817390708F4DCC08A5B9F4FFC010C94C8
:1001B000DB0185E090E09093140180931301D5C09A
:1001C00080E290E0FC01808188233CF481E090E0B3
:1001D000909314018093130124C080E290E0FC010D
:1001E0008081882F90E09C01277033278091120135
:1001F000882F90E0825F9E4FFC018081882F90E0E5
:100200002817390739F482E090E090931401809325
:10021000130107C085E090E09093140180931301CF
:10022000A4C0A3C085E090E09093140180931301D3
:100230009CC083E090E0909314018093130195C0DB
:1002400080E290E0FC018081882F90E09C01277083
:10025000332780911201882F90E0825F9E4FFC012E
:100260008081882F90E02817390739F483E090E0E7
:1002700090931401809313011BC080E290E0FC0175
:100280008081882361F4809112018F5F8093120135
:1002900084E090E0909314018093130109C01092C0
:1002A000120185E090E090931401809313015DC0EA
:1002B0005CC080E290E0FC018081882F90E09C018E
:1002C0002770332780911201882F90E0825F9E4F24
:1002D000FC018081882F90E02817390721F5809153
:1002E00012018330A1F485E290E0FC01808181302D
:1002F00039F481E090E0909314018093130129C0B8
:1003000086E090E0909314018093130122C08091C5
:1003100012018F5F8093120182E090E090931401AC
:100320008093130122C080E290E0FC018081882349
:1003300039F484E090E0909314018093130109C094
:100340001092120185E090E09093140180931301C4
:100350000CC00BC085E090E09093140180931301D2
:1003600010921401109213010000809113019091DA
:100370001401CC01A0E0B0E040E050E026E030E025
:10038000841B950B2817390780F0835B9F4FFC0176
:100390000C94DB0185E290E021E0FC01208308C0A1
:1003A00085E290E0FC01108203C0000001C0000063
:1003B000DF91CF910895EE0FFF1F0024001C0BBEAC
:0C03C0000790F691E02D0994F894FFCF0F
:1003CC0000000002000000007500000000000401A5
:0203DC0002011C
:00000001FF
