:100000000C948A000C94A9000C94A9000C94A900EB
:100010000C94A9000C94A9000C94A9000C94A900BC
:100020000C94A9000C94A9000C94A9000C94A900AC
:100030000C94A9000C94A4030C94A9000C94A9009E
:100040000C94A9000C94A9000C94A9000C94A9008C
:100050000C94A9000C94A9000C94A9000C94A9007C
:100060000C94A9000C94A9000C94A9000C94A9006C
:100070000C94A9000C94A9000C94A9000C94A9005C
:100080000C94A9000C94A9000C94A90052036103DC
:100090006103610361036103610361036103610340
:1000A0006103610361036103610361036103610330
:1000B0006103610361036103610361036103610320
:1000C0006103610361036103610361036103610310
:1000D000420361036103610361036103610332034E
:1000E00061036103610361036103530263027302ED
:1000F00083029302A302B302C802D802E80261039A
:10010000610361036103610361036103F802080392
:100110001803280311241FBECFEFD0E4DEBFCDBFEC
:1001200011E0A0E0B1E0E0E3F9E000E00BBF02C0C5
:1001300007900D92A632B107D9F721E0A6E2B1E00F
:1001400001C01D92A833B207E1F70E94F3030C949B
:1001500096040C94000040E050E00CC000002F5FBB
:100160003F4F02C020E030E0273063E03607B4F3B1
:100170004F5F5F4F48175907ACF308959BB19F7BC2
:100180009BB988B98BB180688BB900008BB18F7730
:100190008BB982E090E00E94AB00089581E00E945C
:1001A000BE000895813120F481580E94BE00089558
:1001B00081550E94BE00089584E690E00E94AB0045
:1001C00088E30E94BE0086E00E94BE008FE00E948D
:1001D000BE0081E00E94BE008AE090E00E94AB0079
:1001E00008959BB190649BB988B98BB180688BB935
:1001F00000008BB18F778BB981E090E00E94AB005B
:100200000895EF92FF920F931F93CF93DF93182FD0
:10021000EB010E94CE000EC001E0010F812F0E9471
:10022000D2007E018FEFE81AF80A88810E94F1005F
:10023000102FE70188818111EFCFDF91CF911F91BE
:100240000F91FF90EF900895CF93C82F8A3019F443
:100250008DE00E9424018091C00085FFFCCFC093F7
:10026000C60080E090E0CF9108950F931F93CF9345
:10027000DF93B62FA72FF82FE92F022F132FD42F9C
:10028000C52F04C0062F172FD82FC92F6B2F7A2FF9
:100290008F2F9E2F202F312F4D2F5C2F0E946B040C
:1002A000B02FA12FFD2FEC2F611571058105910550
:1002B00049F7602F712F8D2F9C2FDF91CF911F91C8
:1002C0000F910895442349F021E030E002C0220F4D
:1002D000331F6A95E2F7822B089521E030E002C0D7
:1002E000220F331F6A95E2F720958223089521E0BB
:1002F00030E002C0220F331F6A95E2F7822308958F
:1003000040E063E08FEF0E94620182B9000080B19B
:1003100067E080950E947701811180C080B166E01E
:1003200080950E94770181117BC080B165E0809546
:100330000E947701811176C080B164E080950E94AF
:100340007701811171C040E062E08FEF0E9462018D
:1003500082B9000080B167E080950E947701811129
:1003600065C080B166E080950E947701811160C010
:1003700080B165E080950E94770181115BC080B1FA
:1003800064E080950E947701811156C040E061E0F1
:100390008FEF0E94620182B9000080B167E0809512
:1003A0000E94770181114AC080B166E080950E9469
:1003B0007701811145C080B165E080950E94770189
:1003C000811140C080B164E080950E947701811165
:1003D0003BC040E060E08FEF0E94620182B9000004
:1003E00080B167E080950E94770181112FC080B1B4
:1003F00066E080950E94770181112AC080B165E096
:1004000080950E947701811125C080B164E08095BC
:100410000E9477018823F9F084E4089581E3089528
:1004200084E3089587E308958AE2089582E30895B6
:1004300085E3089588E3089580E3089583E30895AC
:1004400086E3089589E3089583E2089581E4089599
:1004500082E4089583E40895CF930E948001C82F19
:100460008091360190913701009789F0029709F049
:100470002DC163E171E081E00E94010180910001E2
:100480000E94D20010923701109236011FC18C2FAA
:1004900090E0FC013197E434F10508F012C1EA5B09
:1004A000FF4F0C948D0480E390E00E94F100809156
:1004B00000018F5F8093000181E090E0909337010D
:1004C00080933601FEC081E390E00E94F1008091AC
:1004D00000018F5F8093000181E090E090933701ED
:1004E00080933601EEC082E390E00E94F10080919B
:1004F00000018F5F8093000181E090E090933701CD
:1005000080933601DEC083E390E00E94F100809189
:1005100000018F5F8093000181E090E090933701AC
:1005200080933601CEC084E390E00E94F100809178
:1005300000018F5F8093000181E090E0909337018C
:1005400080933601BEC085E390E00E94F100809167
:1005500000018F5F8093000181E090E0909337016C
:1005600080933601AEC086E390E00E94F100809156
:1005700000018F5F8093000164E271E081E00E94DE
:10058000010181E090E0909337018093360199C09A
:1005900087E390E00E94F100809100018F5F8093DB
:1005A000000181E090E0909337018093360189C08B
:1005B00088E390E00E94F100809100018F5F8093BA
:1005C000000181E090E0909337018093360179C07B
:1005D00089E390E00E94F100809100018F5F809399
:1005E000000181E090E0909337018093360169C06B
:1005F00081E490E00E94F100809100018F5F809380
:10060000000181E090E0909337018093360159C05A
:1006100082E490E00E94F100809100018F5F80935E
:10062000000181E090E0909337018093360149C04A
:1006300083E490E00E94F100809100018F5F80933D
:10064000000181E090E0909337018093360139C03A
:1006500084E490E00E94F100809100018F5F80931C
:1006600000012FC08AE290E00E94F1008091000119
:100670008F5F8093000181E090E090933701809339
:1006800036011FC083E290E00E94F10080910001DA
:100690008F5F8093000181E090E090933701809319
:1006A00036010FC080910001813129F481E08093EF
:1006B00000010E94D200C11104C0109237011092B3
:1006C0003601809136019091370100C0CF91089595
:1006D00060930F01709310018093110190931201A8
:1006E000609326017093270180932801909329013C
:1006F00008958BE0809381008DE790E090938900CE
:100700008093880082E080936F00109285001092A1
:10071000840080910F0190911001A0911101B0917E
:1007200012018093260190932701A0932801B09392
:1007300029018FB780688FBF0895109281000895B6
:1007400081E080932A0108951F920F920FB60F92B5
:1007500011240BB60F922F933F934F935F936F9398
:100760007F938F939F93AF93BF93EF93FF9380916A
:10077000260190912701A0912801B09129010197AC
:10078000A109B1098093260190932701A093280124
:10079000B0932901892B8A2B8B2B91F40E94A00303
:1007A00080910F0190911001A0911101B09112015F
:1007B0008093260190932701A0932801B0932901EB
:1007C000FF91EF91BF91AF919F918F917F916F9129
:1007D0005F914F913F912F910F900BBE0F900FBEE5
:1007E0000F901F901895CF93DF9300D0CDB7DEB751
:1007F0008FE081B980EF82B98FEF84B915B887B9DE
:1008000018B88AB91BB8EBE2F1E0FA83E98382E019
:10081000808382E390E0A0E0B0E081839283A383B1
:10082000B48385839683A783B0878CE292E0928716
:1008300081876AE070E080E090E00E9468030E9497
:1008400079030E94DC000E94CE0010E03BC0E12F43
:10085000F0E0EE0FFF1F81E090E08C0F9D1FE80F8E
:10086000F91FE080F180D70115964D915D916D9152
:100870007C91189711968D919D910D90BC91A02D12
:10088000481759076A077B0781F4D7011996ED913C
:10089000FC911A978C91082E000C990B0995F70181
:1008A00080831582168217821086F70185819681D2
:1008B000A781B0850A96A11DB11D85839683A78364
:1008C000B0871F5F112319F280912A018823E1F379
:1008D00010922A01BACFA1E21A2EAA1BBB1BFD015E
:1008E0000DC0AA1FBB1FEE1FFF1FA217B307E4070F
:1008F000F50720F0A21BB30BE40BF50B661F771F67
:10090000881F991F1A9469F7609570958095909546
:100910009B01AC01BD01CF010895EE0FFF1F002424
:10092000001C0BBE0790F691E02D0994F894FFCFC0
:10093000010000000200000000240100000000018E
:10094000000000436F6E67726174756C6174696F4B
:060950006E732100360069
:00000001FF
