:100000000C9468000C9487000C9487000C94870073
:100010000C9487000C9487000C9487000C94870044
:100020000C9487000C9487000C9487000C94870034
:100030000C9487000C9423030C9487000C94870085
:100040000C9487000C9487000C9487000C94870014
:100050000C9487000C9487000C9487000C94870004
:100060000C9487000C9487000C9487000C948700F4
:100070000C9487000C9487000C9487000C948700E4
:100080000C9487000C9487000C948700D202E20243
:10009000E202E202E202E202E202CA02E202E20258
:1000A000E202E202E2025A0262026A0272027A0288
:1000B00082028A0292029A02A202E202E202E202B0
:1000C000E202E202E202E202AA02B202BA02C202C0
:1000D00011241FBECFEFD0E4DEBFCDBF11E0A0E002
:1000E000B1E0ECE2F8E000E00BBF02C007900D9237
:1000F000A233B107D9F721E0A2E3B1E001C01D921C
:10010000A634B207E1F70E9472030C9414040C9415
:10011000000040E050E00CC000002F5F3F4F02C0E5
:1001200020E030E0273063E03607B4F34F5F5F4FE5
:1001300048175907ACF308959BB19F7B9BB988B9C9
:100140008BB180688BB900008BB18F778BB982E05F
:1001500090E00E948900089581E00E949C0008952B
:10016000813120F481580E949C00089581550E949D
:100170009C00089584E690E00E94890088E30E9434
:100180009C0086E00E949C008FE00E949C0081E021
:100190000E949C008AE090E00E94890008959BB133
:1001A00090649BB988B98BB180688BB900008BB122
:1001B0008F778BB981E090E00E9489000895EF92DB
:1001C000FF920F931F93CF93DF93182FEB010E94A1
:1001D000AC000EC001E0010F812F0E94B0007E0133
:1001E0008FEFE81AF80A88810E94CF00102FE701EC
:1001F00088818111EFCFDF91CF911F910F91FF90F7
:10020000EF900895CF93C82F8A3019F48DE00E94A3
:1002100002018091C00085FFFCCFC093C60080E042
:1002200090E0CF9108950F931F93CF93DF93B62F54
:10023000A72FF82FE92F022F132FD42FC52F04C07B
:10024000062F172FD82FC92F6B2F7A2F8F2F9E2F66
:10025000202F312F4D2F5C2F0E94E903B02FA12FAB
:10026000FD2FEC2F611571058105910549F7602F70
:10027000712F8D2F9C2FDF91CF911F910F9108959A
:10028000442349F021E030E002C0220F331F6A9579
:10029000E2F7822B089521E030E002C0220F331FE5
:1002A0006A95E2F720958223089521E030E002C0AC
:1002B000220F331F6A95E2F78223089540E064E03D
:1002C0008FEF0E94400182B9000080B160E080950C
:1002D0000E945501811180C080B161E080950E942B
:1002E000550181117BC080B162E080950E9455016B
:1002F000811176C080B163E080950E945501811123
:1003000071C040E065E08FEF0E94400182B90000BB
:1003100080B160E080950E945501811165C080B177
:1003200061E080950E945501811160C080B162E05A
:1003300080950E94550181115BC080B163E080957A
:100340000E945501811156C040E066E08FEF0E9487
:10035000400182B9000080B160E080950E945501A3
:1003600081114AC080B161E080950E9455018111E0
:1003700045C080B162E080950E945501811140C066
:1003800080B163E080950E94550181113BC040E03F
:1003900067E08FEF0E94400182B9000080B160E009
:1003A00080950E94550181112FC080B161E0809538
:1003B0000E94550181112AC080B162E080950E949F
:1003C0005501811125C080B163E080950E945501DF
:1003D0008823F9F084E4089581E3089584E308957F
:1003E00087E308958AE2089582E3089585E30895F6
:1003F00088E3089580E3089583E3089586E30895EC
:1004000089E3089583E2089581E4089582E40895DC
:1004100083E408951F93CF93DF93EC010E945E0164
:10042000182F80913301893C18F48F5F809333013A
:10043000809132019FEF980F983C18F48F5F809362
:10044000320180913301843629F462E171E081E068
:100450000E94DF0080913301883C39F481E0809371
:10046000320164E171E00E94DF0080913201843644
:1004700029F466E171E081E00E94DF0080913201A1
:10048000883C29F468E171E081E00E94DF00209758
:1004900029F0C130D10509F48DC094C0812F90E0BE
:1004A000FC01B397E232F10508F08CC0EA5BFF4F24
:1004B0000C940B046AE171E081E00E94DF00C1E06E
:1004C000D0E080C06CE171E081E00E94DF00C1E01B
:1004D000D0E078C062E171E081E00E94DF00C1E01D
:1004E000D0E070C064E171E081E00E94DF00C1E013
:1004F000D0E068C066E171E081E00E94DF00C1E009
:10050000D0E060C06EE171E081E00E94DF00C1E0F8
:10051000D0E058C060E271E081E00E94DF00C1E0FD
:10052000D0E050C062E271E081E00E94DF00C1E0F3
:10053000D0E048C064E271E081E00E94DF00C1E0E9
:10054000D0E040C066E271E081E00E94DF00C1E0DF
:10055000D0E038C068E271E081E00E94DF00C1E0D5
:10056000D0E030C06AE271E081E00E94DF00C1E0CB
:10057000D0E028C06CE271E081E00E94DF00C1E0C1
:10058000D0E020C06EE271E081E00E94DF00C1E0B7
:10059000D0E018C068E171E081E00E94DF00C1E0B6
:1005A000D0E010C060E371E081E00E94DF00C1E0B4
:1005B000D0E008C0111102C0C0E0D0E080E390E0BC
:1005C0000E94CF00CE01DF91CF911F9108956093DB
:1005D0000E0170930F0180931001909311016093AD
:1005E000340170933501809336019093370108955B
:1005F0008BE0809381008DE790E090938900809359
:10060000880082E080936F00109285001092840031
:1006100080910E0190910F01A0911001B0911101F4
:100620008093340190933501A0933601B093370144
:100630008FB780688FBF089510928100089581E080
:100640008093380108951F920F920FB60F921124D4
:100650000BB60F922F933F934F935F936F937F93BC
:100660008F939F93AF93BF93EF93FF938091340148
:1006700090913501A0913601B09137010197A10900
:10068000B1098093340190933501A0933601B09362
:100690003701892B8A2B8B2B91F40E941F038091A9
:1006A0000E0190910F01A0911001B0911101809362
:1006B000340190933501A0933601B0933701FF9137
:1006C000EF91BF91AF919F918F917F916F915F91CA
:1006D0004F913F912F910F900BBE0F900FBE0F9037
:1006E0001F901895CF93DF9300D0CDB7DEB78FE082
:1006F00081B980EF82B98FEF84B915B887B918B87E
:100700008AB91BB8E9E3F1E0FA83E983108282E356
:1007100090E0A0E0B0E081839283A383B4838583DB
:100720009683A783B0878AE092E0928781876AE008
:1007300070E080E090E00E94E7020E94F8020E94D0
:10074000BA000E94AC0010E03BC0E12FF0E0EE0FD9
:10075000FF1F81E090E08C0F9D1FE80FF91FE080E4
:10076000F180D70115964D915D916D917C9118970F
:1007700011968D919D910D90BC91A02D4817590710
:100780006A077B0781F4D7011996ED91FC911A97BE
:100790008C91082E000C990B0995F7018083158226
:1007A000168217821086F70185819681A781B08510
:1007B0000A96A11DB11D85839683A783B0871F5F0D
:1007C000112319F2809138018823E1F31092380146
:1007D000BACFA1E21A2EAA1BBB1BFD010DC0AA1F96
:1007E000BB1FEE1FFF1FA217B307E407F50720F09A
:1007F000A21BB30BE40BF50B661F771F881F991F15
:100800001A9469F760957095809590959B01AC015D
:10081000BD01CF010895EE0FFF1F0024001C0BBE89
:0C0820000790F691E02D0994F894FFCFAA
:10082C0000000002000000000201000000000100B6
:10083C0000003200330034002A0030003100350053
:10084C0036003700380039004100420043004400B4
:02085C00230077
:00000001FF
