:100000000C9446000C9465000C9465000C946500FB
:100010000C9465000C9465000C9465000C946500CC
:100020000C9465000C9465000C9465000C946500BC
:100030000C9465000C9465000C9465000C946500AC
:100040000C9465000C9465000C9465000C9465009C
:100050000C9465000C9465000C9465000C9465008C
:100060000C9465000C9465000C9465000C9465007C
:100070000C9465000C9465000C9465000C9465006C
:100080000C9465000C9465000C94650011241FBE4F
:10009000CFEFD0E4DEBFCDBF11E0A0E0B1E0EAEEEB
:1000A000F1E000E00BBF02C007900D92A031B10754
:1000B000D9F721E0A0E1B1E001C01D92A431B2075F
:1000C000E1F70E947E000C94F3000C940000CF93A3
:1000D000C82F8A3019F48DE00E9467008091C0001B
:1000E00085FFFCCFC093C60080E090E0CF910895DB
:1000F000EAE7F0E08081806E808308958FEF84B915
:1001000015B88AB91BB811B882B90E9478008091DD
:100110000001909101019695879596958795969502
:1001200087959093110180931001809178009091B0
:100130007900909313018093120120911001309166
:1001400011012817390718F081E085B9EECFA90110
:10015000440F551F4817590718F083E085B9E5CFBC
:10016000A901440F551F420F531F4817590718F094
:1001700087E085B9DACFA901440F551F440F551FF9
:100180004817590718F08FE085B9CFCFA901440F60
:10019000551F440F551F420F531F4817590718F09A
:1001A0008FE185B9C2CFA901440F551F420F531FDC
:1001B000440F551F4817590718F08FE385B9B5CF7D
:1001C000A901440F551F440F551F440F551FBA0175
:1001D000621B730B6817790718F08FE785B9A5CFF5
:0A01E0008FEF85B9A2CFF894FFCF8E
:1001EA00C7000000000200000000670000000000D5
:00000001FF
