:100000000C9446000C9465000C9465000C946500FB
:100010000C9465000C9465000C9465000C946500CC
:100020000C9465000C9465000C9465000C946500BC
:100030000C9465000C941C010C9465000C946500F4
:100040000C9465000C9465000C9465000C9465009C
:100050000C9465000C9465000C9465000C9465008C
:100060000C9465000C9465000C9465000C9465007C
:100070000C9465000C9465000C9465000C9465006C
:100080000C9465000C9465000C94650011241FBE4F
:10009000CFEFD0E4DEBFCDBF11E0A0E0B1E0EAE3F6
:1000A000F5E000E00BBF02C007900D92A231B1074E
:1000B000D9F721E0A2E1B1E001C01D92AB31B20756
:1000C000E1F70E947A020C949B020C94000040E03D
:1000D00050E00CC000002F5F3F4F02C020E030E036
:1000E000273063E03607B4F34F5F5F4F4817590777
:1000F000ACF308959BB19F7B9BB988B98BB18068A5
:100100008BB900008BB18F778BB982E090E00E94B1
:100110006700089581E00E947A000895813120F4FB
:1001200081580E947A00089581550E947A000895AE
:1001300084E690E00E94670088E30E947A0086E0EF
:100140000E947A008FE00E947A0081E00E947A008B
:100150008AE090E00E94670008959BB190649BB98B
:1001600088B98BB180688BB900008BB18F778BB960
:1001700081E090E00E9467000895EF92FF920F9354
:100180001F93CF93DF93182FEB010E948A000EC0BC
:1001900001E0010F812F0E948E007E018FEFE81A8F
:1001A000F80A88810E94AD00102FE7018881811133
:1001B000EFCFDF91CF911F910F91FF90EF900895B6
:1001C000CF93C82F8A3019F48DE00E94E00080910F
:1001D000C00085FFFCCFC093C60080E090E0CF91C7
:1001E00008958BE0809381008DE790E090938900E3
:1001F0008093880082E080936F00109285001092B7
:10020000840080910E0190910F01A0911001B09196
:1002100011018093140190931501A0931601B093DE
:1002200017018FB780688FBF0895109281000895DD
:1002300081E08093180108951F920F920FB60F92DC
:1002400011240BB60F922F933F934F935F936F93AD
:100250007F938F939F93AF93BF93EF93FF9380917F
:10026000140190911501A0911601B0911701019709
:10027000A109B1098093140190931501A09316016F
:10028000B0931701892B8A2B8B2B91F40E941801B4
:1002900080910E0190910F01A0911001B091110178
:1002A0008093140190931501A0931601B093170148
:1002B000FF91EF91BF91AF919F918F917F916F913E
:1002C0005F914F913F912F910F900BBE0F900FBEFA
:1002D0000F901F90189560930E0170930F018093FB
:1002E0001001909311016093140170931501809394
:1002F00016019093170108958091190190911A01A8
:100300008230910509F452C030F4009769F00197EA
:1003100009F445C0B3C08430910509F44EC058F0CB
:10032000059709F451C0AAC083E090E090931A01A8
:1003300080931901A7C080B190E08095909583705B
:100340009927019739F481E090E090931A01809306
:10035000190198C080B190E080959095837099279D
:10036000029739F482E090E090931A01809319018A
:1003700089C080B190E0809590958370992703970C
:1003800039F484E090E090931A01809319017AC0C7
:1003900083E090E090931A018093190173C085E087
:1003A00090E090931A01809319016CC085E090E071
:1003B00090931A018093190165C083E090E09093B7
:1003C0001A01809319015EC0209113012F5F2093C1
:1003D000130180B190E080959095837099270397E1
:1003E00039F484E090E090931A01809319014AC097
:1003F00080B190E08095909583709927019759F48A
:100400002A3049F41092130181E090E090931A0190
:100410008093190137C080B190E0809590958370EA
:100420009927029759F42A3049F41092130182E077
:1004300090E090931A018093190124C02A30B8F4F7
:1004400080B190E08095909583709927029741F054
:1004500080B190E08095909583709927019739F449
:1004600085E090E090931A01809319010BC083E01E
:1004700090E090931A018093190104C010921A0120
:10048000109219018091190190911A018230910501
:10049000B1F08430910521F1019759F510921301C3
:1004A0000E948A0080911201893018F48F5F809336
:1004B000120180911201805D0E94AD00089510929A
:1004C00013010E948A0080911201882319F0815043
:1004D0008093120180911201805D0E94AD00089509
:1004E000109213010E948A001092120180E30E9470
:1004F000AD00089511B88FEF82B987B918B88AB9DD
:100500001BB810921A01109219010E94980080E302
:100510000E94AD0064E670E080E090E00E946B0114
:100520000E94F1000E947C01809118018823E1F370
:0A05300010921801F7CFF894FFCFE6
:10053A000000000200000000E000000000000100CE
:02054A000000AF
:00000001FF
