:100000000C9446000C945D000C945D000C945D0013
:100010000C945D000C945D000C945D000C945D00EC
:100020000C945D000C945D000C945D000C945D00DC
:100030000C945D000C945D000C945D000C945D00CC
:100040000C945D000C945D000C945D000C945D00BC
:100050000C945D000C945D000C945D000C945D00AC
:100060000C945D000C945D000C945D000C945D009C
:100070000C945D000C945D000C945D000C945D008C
:100080000C945D000C945D000C945D0011241FBE67
:10009000CFEFD0E4DEBFCDBF11E0A0E0B1E0EEECE9
:1000A000F1E000E00BBF02C007900D92AA31B1074A
:1000B000D9F70E94D8000C94E5000C94000040E0B1
:1000C00050E00CC000002F5F3F4F02C020E030E046
:1000D000273063E03607B4F34F5F5F4F4817590787
:1000E000ACF308959BB19F7B9BB988B98BB18068B5
:1000F0008BB900008BB18F778BB982E090E00E94C2
:100100005F00089581E00E9472000895813120F41B
:1001100081580E947200089581550E9472000895CE
:1001200084E690E00E945F0088E30E94720086E00F
:100130000E9472008FE00E94720081E00E947200B3
:100140008AE090E00E945F0008959BB190649BB9A3
:1001500088B98BB180688BB900008BB18F778BB970
:1001600081E090E00E945F000895EF92FF920F936C
:100170001F93CF93DF93182FEB010E9482000EC0D4
:1001800001E0010F812F0E9486007E018FEFE81AA7
:10019000F80A88810E94A500102FE701888181114B
:1001A000EFCFDF91CF911F910F91FF90EF900895C6
:1001B0008FEF87B918B88AB91BB80E94900060E029
:0E01C00071E081E00E94B500FFCFF894FFCF00
:1001CE0042525555555555555555555555555555E7
:0A01DE0055555555484848480000A3
:00000001FF
