:100000000C944D000C946C000C946C000C946C00DF
:100010000C946C000C946C000C946C000C946C00B0
:100020000C946C000C946C000C946C000C946C00A0
:100030000C946C000C9423010C946C000C946C00D8
:100040000C946C000C946C000C946C000C946C0080
:100050000C946C000C946C000C946C000C946C0070
:100060000C946C000C946C000C946C000C946C0060
:100070000C946C000C946C000C946C000C946C0050
:100080000C946C000C946C000C946C008F01960125
:10009000BB01E10106022C023C0211241FBECFEF7E
:1000A000D0E4DEBFCDBF11E0A0E0B1E0E8EEF5E0C6
:1000B00000E00BBF02C007900D92AE31B107D9F737
:1000C00021E0AEE1B1E001C01D92A932B207E1F733
:1000D0000E94C8020C94F2020C94000040E050E030
:1000E0000CC000002F5F3F4F02C020E030E02730FF
:1000F00063E03607B4F34F5F5F4F48175907ACF31F
:1001000008959BB19F7B9BB988B98BB180688BB9EF
:1001100000008BB18F778BB982E090E00E946E0077
:10012000089581E00E9481000895813120F4815872
:100130000E948100089581550E948100089584E6FF
:1001400090E00E946E0088E30E94810086E00E9499
:1001500081008FE00E94810081E00E9481008AE09E
:1001600090E00E946E0008959BB190649BB988B99D
:100170008BB180688BB900008BB18F778BB981E030
:1001800090E00E946E000895EF92FF920F931F93EC
:10019000CF93DF93182FEB010E9491000EC001E076
:1001A000010F812F0E9495007E018FEFE81AF80A57
:1001B00088810E94B400102FE70188818111EFCF60
:1001C000DF91CF911F910F91FF90EF900895CF9302
:1001D000C82F8A3019F48DE00E94E7008091C0009A
:1001E00085FFFCCFC093C60080E090E0CF910895DA
:1001F0008BE0809381008DE790E09093890080935D
:10020000880082E080936F00109285001092840035
:1002100080910F0190911001A0911101B0911201F4
:100220008093220190932301A0932401B093250190
:100230008FB780688FBF089510928100089581E084
:100240008093260108951F920F920FB60F921124EA
:100250000BB60F922F933F934F935F936F937F93C0
:100260008F939F93AF93BF93EF93FF93809122015E
:1002700090912301A0912401B09125010197A1093A
:10028000B1098093220190932301A0932401B0939C
:100290002501892B8A2B8B2B91F40E941F018091C1
:1002A0000F0190911001A0911101B0911201809362
:1002B000220190932301A0932401B0932501FF9183
:1002C000EF91BF91AF919F918F917F916F915F91CE
:1002D0004F913F912F910F900BBE0F900FBE0F903B
:1002E0001F90189560930F01709310018093110176
:1002F0009093120160932201709323018093240153
:10030000909325010895E0912701F0912801E730AD
:10031000F10508F0C4C0EA5BFF4F0C94E90281E0EC
:1003200090E09093280180932701BDC000990DC0F3
:1003300080912101811109C01092200185E090E097
:100340009093280180932701AEC0009B0DC080913F
:100350002101813049F41092210182E090E09093D4
:100360002801809327019FC082E090E090932801AC
:100370008093270198C000990EC0809121018111BE
:100380000AC081E08093200185E090E090932801ED
:100390008093270188C0009B0DC08091210181308E
:1003A00049F41092210183E090E09093280180931A
:1003B000270179C083E090E0909328018093270182
:1003C00072C000990DC080912101811109C0109265
:1003D000200185E090E0909328018093270163C07D
:1003E000009B0DC080912101813049F410922101C0
:1003F00084E090E0909328018093270154C084E02A
:1004000090E090932801809327014DC000990EC081
:100410008091210181110AC081E08093200185E053
:1004200090E090932801809327013DC0009B0DC070
:1004300080912101813049F41092210181E090E006
:1004400090932801809327012EC081E090E0909343
:1004500028018093270127C0009907C085E090E01C
:1004600090932801809327011EC086E090E090932E
:1004700028018093270117C000990AC081E080936A
:10048000210181E090E090932801809327010BC027
:1004900086E090E0909328018093270104C0109299
:1004A0002801109227018091270190912801833023
:1004B000910511F130F48130910559F00297B9F0AE
:1004C00008958530910511F1E0F0069709F44FC0C9
:1004D00008950E94910080910001805D0E94B40007
:1004E00010921F0181E085B910921E01089582E0EB
:1004F00085B910921E01089584E085B910921E01FD
:10050000089510921E0182E085B9089580911E0120
:1005100081113DC081E080931E010E949100809175
:1005200020018130B9F480910001883040F491E0DD
:10053000980F909300018F5C0E94B400089581E0B1
:1005400080931F0163E171E00E94C40085E0809305
:100550000001089580910001882319F08150809353
:10056000000180910001805D0E94B40008950E9406
:10057000910080911F01813029F463E171E00E94B4
:10058000C400089580910001805D0E94B400089528
:1005900011B88FEF82B984B915B887B918B88AB97C
:1005A0001BB86CE271E080E090E00E9472010E9452
:1005B000F8000E949F0080910001805D0E94B400BD
:1005C0000E948301809126018823E1F31092260185
:1005D000F7CFEE0FFF1F0024001C0BBE0790F69113
:0805E000E02D0994F894FFCF0F
:1005E800050000000200000000E700000000000114
:0E05F80000000057494E4E455221212121009E
:00000001FF
