:100000000C9446000C9465000C9465000C946500FB
:100010000C9465000C9465000C9465000C946500CC
:100020000C9465000C9465000C9465000C946500BC
:100030000C9465000C94A3000C9465000C9465006E
:100040000C9465000C9465000C9465000C9465009C
:100050000C9465000C9465000C9465000C9465008C
:100060000C9465000C9465000C9465000C9465007C
:100070000C9465000C9465000C9465000C9465006C
:100080000C9465000C9465000C94650011241FBE4F
:10009000CFEFD0E4DEBFCDBF11E0A0E0B1E0E0EDF6
:1000A000F7E000E00BBF02C007900D92A834B10743
:1000B000D9F721E0A8E4B1E001C01D92A535B2074F
:1000C000E1F70E9436020C94E6030C940000CF93F3
:1000D000C82F8A3019F48DE00E9467008091C0001B
:1000E00085FFFCCFC093C60080E090E0CF910895DB
:1000F0008BE0809381008DE790E09093890080935E
:10010000880082E080936F00109285001092840036
:100110008091440190914501A0914601B091470121
:1001200080934A0190934B01A0934C01B0934D01F1
:100130008FB780688FBF089510928100089581E085
:1001400080934E0108951F920F920FB60F921124C3
:100150000BB60F922F933F934F935F936F937F93C1
:100160008F939F93AF93BF93EF93FF9380914A0137
:1001700090914B01A0914C01B0914D010197A109C3
:10018000B10980934A0190934B01A0934C01B09325
:100190004D01892B8A2B8B2B91F40E949F0080911B
:1001A000440190914501A0914601B091470180938F
:1001B0004A0190934B01A0934C01B0934D01FF91E4
:1001C000EF91BF91AF919F918F917F916F915F91CF
:1001D0004F913F912F910F900BBE0F900FBE0F903C
:1001E0001F901895609344017093450180934601D8
:1001F0009093470160934A0170934B0180934C01A7
:1002000090934D010895CF92DF92EF92FF926B0190
:100210007C0160914F01709150018091510190914A
:100220005201A70196010E945202882309F458C086
:1002300020E030E0A901C701B6010E9452028111FD
:1002400006C0E1E9F0E080818870808305C0E1E9C3
:10025000F0E080818360808328E539E344E75FE351
:10026000C701B6010E94520288233CF48FEF9FEF32
:10027000909399008093980027C020E034E244EFE7
:1002800056E4C701B6010E94740318162CF41092AC
:1002900099001092980018C020E030E040E053E44C
:1002A000C701B6010E9479039B01AC0160E074E2D2
:1002B00084EF9AE40E9457020E94C90261507109BA
:1002C000709399006093980010929500109294009A
:1002D000C0924F01D0925001E0925101F092520130
:1002E000FF90EF90DF90CF90089580E4809390008E
:1002F0008BE08093910060E070E0CB010E940301ED
:1003000008951092900010929100089580915301E9
:10031000909154018130910579F038F08230910547
:1003200009F1039709F443C057C081E090E090932E
:1003300054018093530150C080B190E08095909516
:1003400087709927019739F482E090E090935401E7
:100350008093530141C081E090E0909354018093D9
:1003600053013AC0809149018930D0F0109249017F
:100370001092480180B190E0809590958770992700
:10038000019739F483E090E09093540180935301F6
:1003900023C081E090E090935401809353011CC0EE
:1003A00082E090E0909354018093530115C080B196
:1003B00090E08095909587709927019739F483E0B4
:1003C00090E0909354018093530106C082E090E046
:1003D0009093540180935301809153019091540163
:1003E0008130910569F030F08230910579F0039702
:1003F000B9F1089560E070E0CB010E940301089517
:1004000060E070E0CB010E940301089580914801F3
:10041000482F50E090914901E92FF0E0EE0FFF1FC7
:10042000E050FF4F208131814217530731F49F5F25
:10043000909349011092480103C08F5F8093480157
:10044000E0914901F0E0EE0FFF1FEE0FFF1FEE5E9F
:10045000FE4F60817181828193810E940301089522
:1004600060E070E0CB010E94030108958FEF84B932
:1004700015B811B882B90E947501109254011092FA
:10048000530164E670E080E090E00E94F2000E9478
:1004900078000E94860180914E018823E1F310923A
:1004A0004E01F7CF0E94FF0208F481E008950E94F8
:1004B0006B020C943A030E94330358F00E942C0301
:1004C00040F029F45F3F29F00C94230351110C9460
:1004D0006E030C9429030E944B0368F39923B1F334
:1004E000552391F3951B550BBB27AA27621773075A
:1004F000840738F09F5F5F4F220F331F441FAA1FEE
:10050000A9F335D00E2E3AF0E0E832D091505040A9
:10051000E695001CCAF72BD0FE2F29D0660F771F57
:10052000881FBB1F261737074807AB07B0E809F03D
:10053000BB0B802DBF01FF2793585F4F3AF09E3FC2
:10054000510578F00C9423030C946E035F3FE4F3A1
:10055000983ED4F3869577956795B795F7959F5F05
:10056000C9F7880F911D9695879597F90895E1E051
:10057000660F771F881FBB1F621773078407BA07B0
:1005800020F0621B730B840BBA0BEE1F88F7E0950B
:1005900008950E94D0026894B1110C946E030895DE
:1005A0000E94530388F09F5798F0B92F9927B751AD
:1005B000B0F0E1F0660F771F881F991F1AF0BA9507
:1005C000C9F714C0B13091F00E946D03B1E00895F5
:1005D0000C946D03672F782F8827B85F39F0B93FE7
:1005E000CCF3869577956795B395D9F73EF49095BA
:1005F0008095709561957F4F8F4F9F4F0895990F0C
:100600000008550FAA0BE0E8FEEF16161706E807DC
:10061000F907C0F012161306E407F50798F0621BFD
:10062000730B840B950B39F40A2661F0232B242BD2
:10063000252B21F408950A2609F4A140A6958FEFF1
:10064000811D811D089597F99F6780E870E060E043
:1006500008959FEF80EC089500240A94161617065B
:1006600018060906089500240A94121613061406A3
:1006700005060895092E0394000C11F4882352F006
:10068000BB0F40F4BF2B11F460FF04C06F5F7F4FBE
:100690008F4F9F4F089557FD9058440F551F59F0A5
:1006A0005F3F71F04795880F97FB991F61F09F3F5F
:1006B00079F087950895121613061406551FF2CF88
:1006C0004695F1DF08C0161617061806991FF1CFD8
:1006D00086957105610508940895E894BB276627FF
:1006E0007727CB0197F908950E94FF0208F48FEF56
:1006F00008950E948C030C943A030E942C0338F056
:100700000E94330320F0952311F00C9423030C94E2
:10071000290311240C946E030E944B0370F3959FE0
:10072000C1F3950F50E0551F629FF001729FBB27E8
:10073000F00DB11D639FAA27F00DB11DAA1F649F84
:100740006627B00DA11D661F829F2227B00DA11D37
:10075000621F739FB00DA11D621F839FA00D611DBD
:10076000221F749F3327A00D611D231F849F600DDE
:10077000211D822F762F6A2F11249F5750409AF007
:10078000F1F088234AF0EE0FFF1FBB1F661F771F93
:10079000881F91505040A9F79E3F510580F00C945E
:1007A00023030C946E035F3FE4F3983ED4F38695E5
:1007B00077956795B795F795E7959F5FC1F7FE2BFE
:1007C000880F911D9695879597F90895F894FFCF16
:1007D000050005000A000500050005000A000A00E2
:1007E00000000000C44300D00244A4D0A443719D83
:1007F000AE430000C44300D00244A4F0F64300D04E
:100800000244000000000000000200000000670039
:080810000000000001000000DF
:00000001FF
