:100000000C9446000C9465000C9465000C946500FB
:100010000C9465000C9465000C9465000C946500CC
:100020000C9465000C9465000C9465000C946500BC
:100030000C9465000C94A3000C9465000C9465006E
:100040000C9465000C9465000C9465000C9465009C
:100050000C9465000C9465000C9465000C9465008C
:100060000C9465000C9465000C9465000C9465007C
:100070000C9465000C9465000C9465000C9465006C
:100080000C9465000C9465000C94650011241FBE4F
:10009000CFEFD0E4DEBFCDBF11E0A0E0B1E0E4E0FF
:1000A000F4E000E00BBF02C007900D92A231B1074F
:1000B000D9F721E0A2E1B1E001C01D92AA31B20757
:1000C000E1F70E94E5010C9400020C940000CF932C
:1000D000C82F8A3019F48DE00E9467008091C0001B
:1000E00085FFFCCFC093C60080E090E0CF910895DB
:1000F0008BE0809381008DE790E09093890080935E
:10010000880082E080936F00109285001092840036
:1001100080910E0190910F01A0911001B0911101F9
:100120008093130190931401A0931501B0931601CD
:100130008FB780688FBF089510928100089581E085
:100140008093170108951F920F920FB60F921124FA
:100150000BB60F922F933F934F935F936F937F93C1
:100160008F939F93AF93BF93EF93FF93809113016E
:1001700090911401A0911501B09116010197A10968
:10018000B1098093130190931401A0931501B093CA
:100190001601892B8A2B8B2B91F40E949F00809152
:1001A0000E0190910F01A0911001B0911101809367
:1001B000130190931401A0931501B0931601FF91C0
:1001C000EF91BF91AF919F918F917F916F915F91CF
:1001D0004F913F912F910F900BBE0F900FBE0F903C
:1001E0001F90189560930E0170930F01809310017A
:1001F0009093110160931301709314018093150182
:100200009093160108958091180190911901823000
:10021000910509F452C030F4009769F0019709F490
:1002200045C0B3C08430910509F44EC058F005971D
:1002300009F451C0AAC083E090E090931901809323
:100240001801A7C080B190E08095909583709927A0
:10025000019739F481E090E090931901809318019F
:1002600098C080B190E0809590958370992702970F
:1002700039F482E090E0909319018093180189C0CD
:1002800080B190E08095909583709927039739F419
:1002900084E090E090931901809318017AC083E084
:1002A00090E0909319018093180173C085E090E06D
:1002B00090931901809318016CC085E090E09093B1
:1002C00019018093180165C083E090E090931901B3
:1002D000809318015EC0209112012F5F20931201BC
:1002E00080B190E08095909583709927039739F4B9
:1002F00084E090E090931901809318014AC080B186
:1003000090E08095909583709927019759F42A3051
:1003100049F41092120181E090E0909319018093CA
:10032000180137C080B190E080959095837099272F
:10033000029759F42A3049F41092120182E090E0B9
:10034000909319018093180124C02A30B8F480B129
:1003500090E08095909583709927029741F080B145
:1003600090E08095909583709927019739F485E006
:1003700090E090931901809318010BC083E090E006
:10038000909319018093180104C0109219011092E2
:10039000180180911801909119018230910561F046
:1003A0008430910581F0019779F485B1893060F44A
:1003B00085B18F5F85B9089585B1882329F085B10E
:1003C000815085B9089515B8089511B88FEF82B995
:1003D00084B915B8109219011092180115B864E685
:1003E00070E080E090E00E94F2000E9478000E949D
:1003F0000301809117018823E1F310921701F7CFD1
:04040000F894FFCF9E
:10040400000000020000000067000000000001007E
:020414000000E6
:00000001FF
