:100000000C944D000C946C000C946C000C946C00DF
:100010000C946C000C946C000C946C000C946C00B0
:100020000C946C000C946C000C946C000C946C00A0
:100030000C946C000C94AA000C946C000C946C0052
:100040000C946C000C946C000C946C000C946C0080
:100050000C946C000C946C000C946C000C946C0070
:100060000C946C000C946C000C946C000C946C0060
:100070000C946C000C946C000C946C000C946C0050
:100080000C946C000C946C000C946C0016011D0117
:10009000400163018601A901B90111241FBECFEF00
:1000A000D0E4DEBFCDBF11E0A0E0B1E0ECE1F4E0D0
:1000B00000E00BBF02C007900D92A231B107D9F743
:1000C00021E0A2E1B1E001C01D92AA31B207E1F73F
:1000D0000E94ED010C940C020C940000CF93C82FE9
:1000E0008A3019F48DE00E946E008091C00085FF77
:1000F000FCCFC093C60080E090E0CF9108958BE0E4
:10010000809381008DE790E0909389008093880030
:1001100082E080936F00109285001092840080919D
:100120000E0190910F01A0911001B09111018093E7
:10013000130190931401A0931501B09316018FB78A
:1001400080688FBF089510928100089581E08093A8
:10015000170108951F920F920FB60F9211240BB63C
:100160000F922F933F934F935F936F937F938F9350
:100170009F93AF93BF93EF93FF938091130190915F
:100180001401A0911501B09116010197A109B109BF
:100190008093130190931401A0931501B09316015D
:1001A000892B8A2B8B2B91F40E94A60080910E0143
:1001B00090910F01A0911001B09111018093130152
:1001C00090931401A0931501B0931601FF91EF9144
:1001D000BF91AF919F918F917F916F915F914F915F
:1001E0003F912F910F900BBE0F900FBE0F901F905D
:1001F000189560930E0170930F01809310019093F6
:100200001101609313017093140180931501909371
:1002100016010895E0911801F0911901E730F105F8
:1002200008F0BAC0EA5BFF4F0C94030281E090E053
:100230009093190180931801B3C000990BC080916D
:100240001201811107C085E090E09093190180931D
:100250001801A6C0009B0DC080911201813049F4A5
:100260001092120182E090E090931901809318019E
:1002700097C082E090E0909319018093180190C09C
:1002800000990BC080911201811107C085E090E0B8
:10029000909319018093180183C0009B0DC0809139
:1002A0001201813049F41092120183E090E09093A2
:1002B00019018093180174C083E090E090931901B4
:1002C000809318016DC000990BC0809112018111BB
:1002D00007C085E090E0909319018093180160C0F9
:1002E000009B0DC080911201813049F410921201DF
:1002F00084E090E0909319018093180151C084E04C
:1003000090E090931901809318014AC000990BC0A6
:1003100080911201811107C085E090E0909319014E
:10032000809318013DC0009B0DC080911201813067
:1003300049F41092120181E090E0909319018093AA
:1003400018012EC081E090E090931901809318016C
:1003500027C0009907C085E090E090931901809331
:1003600018011EC086E090E0909319018093180157
:1003700017C000990AC081E08093120181E090E0EB
:1003800090931901809318010BC086E090E0909340
:1003900019018093180104C01092190110921801DC
:1003A00080911801909119018230910569F018F43B
:1003B000019739F008958330910549F0049751F081
:1003C000089581E085B9089582E085B9089584E0B3
:1003D00085B9089582E085B9089511B88FEF82B983
:1003E00084B915B86CE271E080E090E00E94F900F9
:1003F0000E947F000E940A01809117018823E1F387
:1004000010921701F7CFEE0FFF1F0024001C0BBE48
:0C0410000790F691E02D0994F894FFCFBE
:10041C0000000002000000006E000000000001005F
:02042C000000CE
:00000001FF
