:100000000C9446000C9465000C9465000C946500FB
:100010000C9465000C9465000C9465000C946500CC
:100020000C9465000C9465000C9465000C946500BC
:100030000C9465000C94A3000C9465000C9465006E
:100040000C9465000C9465000C9465000C9465009C
:100050000C9465000C9465000C9465000C9465008C
:100060000C9465000C9465000C9465000C9465007C
:100070000C9465000C9465000C9465000C9465006C
:100080000C9465000C9465000C94650011241FBE4F
:10009000CFEFD0E4DEBFCDBF11E0A0E0B1E0EEE0F5
:1000A000F6E000E00BBF02C007900D92A431B1074B
:1000B000D9F721E0A4E1B1E001C01D92AB32B20753
:1000C000E1F70E94C7020C9405030C940000CF9343
:1000D000C82F8A3019F48DE00E9467008091C0001B
:1000E00085FFFCCFC093C60080E090E0CF910895DB
:1000F0008BE0809381008DE790E09093890080935E
:10010000880082E080936F00109285001092840036
:1001100080910F0190911001A0911101B0911201F5
:100120008093170190931801A0931901B0931A01BD
:100130008FB780688FBF089510928100089581E085
:1001400080931B0108951F920F920FB60F921124F6
:100150000BB60F922F933F934F935F936F937F93C1
:100160008F939F93AF93BF93EF93FF93809117016A
:1001700090911801A0911901B0911A010197A1095C
:10018000B1098093170190931801A0931901B093BE
:100190001A01892B8A2B8B2B91F40E949F0080914E
:1001A0000F0190911001A0911101B0911201809363
:1001B000170190931801A0931901B0931A01FF91B0
:1001C000EF91BF91AF919F918F917F916F915F91CF
:1001D0004F913F912F910F900BBE0F900FBE0F903C
:1001E0001F90189560930F01709310018093110177
:1001F0009093120160931701709318018093190175
:1002000090931A010895809120018F5F80932001BF
:10021000863939F41092200180911F018F5F8093FD
:100220001F0180912301909124018130910571F08B
:1002300030F082309105F1F0039781F142C081E006
:1002400090E090932401809323013BC080911F0193
:10025000823049F482E090E090932401809323015E
:1002600010921F012EC081E090E0909324018093B2
:10027000230127C080911F01823049F483E090E080
:10028000909324018093230110921F011AC082E0F1
:1002900090E0909324018093230113C080911F016B
:1002A000823049F481E090E090932401809323010F
:1002B00010921F0106C083E090E090932401809388
:1002C000230180912301909124018230910549F00E
:1002D0008330910551F0019759F481E08093160124
:1002E000089582E080931601089584E080931601BA
:1002F000089580911E018F5F80931E018A3F39F41B
:1003000010921E0180911D018F5F80931D018091CD
:100310002701909128018130910559F018F002973A
:10032000E1F02EC082E090E09093280180932701B5
:1003300027C080911D01843049F482E090E09093C1
:1003400028018093270110921D011AC081E090E0DE
:10035000909328018093270113C080911D01843060
:1003600049F481E090E09093280180932701109256
:100370001D0106C082E090E0909328018093270140
:1003800080912701909128018130910519F0029701
:1003900029F0089588E080931501089510921501C1
:1003A000089580912101909122018230910509F4F4
:1003B0003FC028F4009749F0019799F155C0833068
:1003C000910551F00497D9F14FC083E090E09093EC
:1003D00022018093210148C080B190E080959095E2
:1003E00083709927019739F481E090E0909322017E
:1003F0008093210139C080B190E080959095837001
:100400009927029739F482E090E09093220180933B
:1004100021012AC083E090E0909322018093210182
:1004200023C084E090E090932201809321011CC0BE
:1004300084E090E0909322018093210115C080B167
:1004400090E08095909583709927892B39F084E00E
:1004500090E0909322018093210106C083E090E018
:10046000909322018093210180912101909122019A
:100470008130910519F0029749F0089580910001AB
:10048000833058F0815080930001089580910001DD
:100490008A3018F48F5F80930001089580911C01C9
:1004A0008F5F80931C012091290130912A01213016
:1004B0003105E1F020F02230310541F026C022E084
:1004C00030E030932A01209329011FC0029907C010
:1004D00021E030E030932A012093290116C022E068
:1004E00030E030932A01209329010FC0029B07C0FE
:1004F00022E030E030932A012093290106C021E058
:1005000030E030932A012093290120912901309174
:100510002A012130310531F02230310589F4109261
:1005200014010895609100010E94F902911106C022
:1005300010921C0180E1809314010895109214011F
:1005400008958091250190912601009719F0019757
:1005500041F00DC081E090E0909326018093250149
:1005600006C081E090E09093260180932501809160
:10057000250190912601019749F4909116018091EF
:100580001501890F90911401890F85B9089511B84B
:100590008FEF82B984B915B810922401109223010B
:1005A0001092280110922701109226011092250125
:1005B00010922A0110922901109222011092210119
:1005C00061E070E080E090E00E94F2000E9478001C
:1005D0000E9403010E9479010E94A1020E944E0222
:1005E0000E94D10180911B018823E1F310921B012D
:1005F000EFCF991B79E004C0991F961708F0961B5E
:0E060000881F7A95C9F780950895F894FFCF6A
:10060E00050000000200000000670000000000016D
:04061E0000000000D8
:00000001FF
